:020000040800F2
:10000000E81B0020CD000008310200083302000880
:1000100000000000000000000000000000000000E0
:10002000000000000000000000000000370200088F
:100030000000000000000000390200083B02000838
:10004000DF00000800000000DF000008DF000008FB
:10005000DF000008DF000008DF000008DF00000804
:1000600000000000DF000008DF000008DF000008DB
:10007000DF000008DF000008DF00000800000000CB
:100080004D020008DF000008DF000008DF00000864
:10009000DF000008DF000008DF000008DF000008C4
:1000A000DF000008DF000008DF000008430200084E
:1000B000DF000008DF000008034885460BF044FA23
:1000C000004800476F010008E81B002004488047F3
:1000D00004480047FEE7FEE7FEE7FEE7FEE7FEE72F
:1000E00069910008B90000082B4800BF0146401E76
:1000F0000029FBD17047704700B591B0342104A8A6
:100100000BF017FA0020009001900290039001205C
:10011000400206F0C6FA02200490C00107900020B9
:1001200008904020099002200B9002210C910021A0
:100130000D9108210E9101040F910107109104A85F
:1001400004F0C5FC002801D0FFF7D5FF0720009080
:10015000022001900020029003900221684604F0E2
:10016000F4FF002801D0FFF7C6FF11B000BD06F074
:1001700069FCFFF7C1FF00F015F809F053F90122FF
:100180000649074807F042FE002801D0FFF7B3FFF9
:1001900001E009F02FF9FCE7F0FF00001701002053
:1001A0003802002000B587B0142102A80BF0C1F975
:1001B00000BF1D48406B042108431B4948630846A3
:1001C000406B04210840019000BF00BF00BF1648EB
:1001D000406B01210843144948630846406BC0073F
:1001E000C00F019000BF00BF00BF0846406B022156
:1001F00008430D4948630846406B022108400190BE
:1002000000BF00BF00221021084800F0B2F9102002
:1002100002900120039000200490059002A9034859
:1002200000F040F807B000BD00100240000400508C
:10023000704700BFFEE77047704710B506F02EFC10
:1002400010BD10B5044808F0B1FB10BD10B503484F
:1002500001F0F8FF10BD000038020020C4020020A9
:1002600008B500BF0E480068012108430C4908602A
:1002700008460068C007C00F009000BF00BF00BF65
:1002800007484038C06B8905084305494039C863B1
:100290000846C06B09040840009000BF00BF08BDBD
:1002A0004010024070B503460022D5E0012696407A
:1002B0000C683440002C71D04D68022D02D04D687E
:1002C000122D15D1D508AE001D462035A859550769
:1002D000EE0E0F25B5400646AE4330465607F60EE5
:1002E0000D69B5402843D508AD001E462036705133
:1002F000186856000325B5400646AE4330460D79D2
:10030000AD07AD0F5600B540284318604D68012D6C
:1003100008D04D68022D05D04D68112D02D04D68D2
:10032000122D18D1986856000325B5400646AE43F5
:1003300030465600CD68B54028439860586801257E
:1003400095400646AE43304610264D6835402D098F
:10035000954028435860D86856000325B5400646A6
:10036000AE43304656008D68B5402843D86001261C
:1003700036074D683540B5426DD1A04D9608B600A0
:10038000A8599507EE0E0F25B5400646AE433046F8
:1003900005252D07AB4202D1002510E05BE0984D0A
:1003A000AB4201D101250AE0964DAB4201D10225B5
:1003B00005E0954DAB4201D1032500E005259607E8
:1003C000F60EB54028438D4D9608B600A8518B4DCA
:1003D000203528680546A5432846012636044D6881
:1003E0003540B54202D1054625432846834D203588
:1003F000286068680546A5432846012676044D68AE
:100400003540B54202D10546254328467B4D20356F
:1004100068607A4D603D28680546A5432846012658
:1004200036054D683540B54202D10546254328467C
:10043000724D603D286068680546A5432846012640
:1004400076054D683540B54202D10546254328461C
:100450006A4D603D6860521C0D68D540002D00D08B
:1004600024E770BDF0B502460B46002073E001257D
:1004700085402946194000296CD0604D8608B60099
:10048000AC598507EE0E0F25B5402C4005252D07EC
:10049000AA4201D100250FE0594DAA4201D1012500
:1004A0000AE0584DAA4201D1022505E0564DAA4264
:1004B00001D1032500E005258607F60EB540A542CB
:1004C00022D14E4D20352D688D434C4E203635605F
:1004D00035466D688D437560484D603D2D688D4390
:1004E000464E603E356035466D688D4375608507C4
:1004F000EE0E0F25B5402C46404D8608B600AE598D
:10050000A6438708BF00EE51156847000326BE408A
:1005100035431560C508AE0015462035AD59460770
:10052000F70E0F26BE40B543C608B6001746203763
:10053000BD51956847000326BE40B5439560556898
:1005400001268640B5435560D56847000326BE4066
:10055000B543D560401C1D46C540002D87D1F0BD78
:10056000024613690B40002B01D0012000E000205F
:100570007047002A01D0816100E0816270474269C2
:100580000A40002A01D0816200E08161704708B50D
:100590000246012000040090009808430090009853
:1005A000D061D1610098D061D0690090D0690123F9
:1005B0001B041840002801D0002008BD0120FCE7E2
:1005C0007047704710B504460C486038C06820403A
:1005D000002805D009486038C4602046FFF7F1FFC5
:1005E0000648603800692040002805D0034860387C
:1005F00004612046FFF7E4FF10BD000060180240D0
:100600000004005000080050000C005010B50268B3
:10061000FE4B984202D0FE4B984205D170241346FF
:10062000A3431A464B681A43F84B98420ED0F84B36
:1006300098420BD0F74B984208D0F74B984205D020
:10064000F64B984202D0F64B984206D1032424027E
:100650001346A3431A46CB681A4380241346A34388
:100660004C6923431A4602608B68C3620B6883623D
:10067000E64B984208D0E84B984205D0E74B9842A9
:1006800002D0E74B984201D10B6903630123436118
:1006900010BD704710B50446002C01D1012010BDDB
:1006A0003D20005D002805D100213C200155204659
:1006B00009F0A4F802213D200155211D2068FFF713
:1006C000A5FF01213D2001550020E8E7704710B546
:1006D000044602213D20015500BF2068006AD1492F
:1006E000084000280BD12068006A891008400028C3
:1006F00005D120680068400840002168086000BFFC
:10070000204609F0AFF800213D20015500BF3C20F4
:10071000015500BF002010BD014602233D20435477
:1007200008688068C04B18400246062A08D0D81FC7
:10073000824205D008680068012318430B681860DE
:1007400001233D20435400207047014602223D20F2
:10075000425400BF0868006AB24A104000280BD11A
:100760000868006A92101040002805D108680068E7
:10077000400840000A68106000BF01223D2042543A
:100780000020704701460868C068012318430B68C1
:10079000D86008688068A44B18400246062A08D032
:1007A000D81F824205D008680068012318430B68EF
:1007B00018600020704701460868C0684008400083
:1007C0000A68D06000BF0868006A964A1040002896
:1007D0000BD10868006A92101040002805D1086803
:1007E0000068400840000A68106000BF00207047A1
:1007F000704770B50446A56A01213D204155284641
:10080000FFF7F6FF70BD704770B50446A56A012179
:100810003D2041552846FFF7F6FF70BD704770B583
:100820000446A56A01213D204155284609F034F8C7
:1008300070BDF8B504460F4615463D20005D022800
:1008400000D1F8BD3D20005D012807D1002F02D165
:10085000002D00D0F5E702213D2001557348216AA3
:10086000C8627348216A08637248216A4863216834
:100870000A462C322B463946206A05F012FB002826
:1008800001D00120DDE72068C068FF210131084365
:100890002168C8602068866863490E40062E08D02B
:1008A000C81F864205D020680068012108432168DE
:1008B00008600020C5E710B504462068C068FF2125
:1008C000013188432168C860206A05F09EFB00BFA3
:1008D0002068006A5349084000280BD12068006A4C
:1008E00089100840002805D12068006840084000B1
:1008F0002168086000BF01213D200155002010BD86
:10090000704710B50446002C01D1012010BD3D20D8
:10091000005D002805D100213C2001552046FFF74D
:10092000EFFF02213D200155211D2068FFF76EFEDB
:1009300001213D2001550020E8E7704710B504462D
:1009400002213D20015500BF2068006A354908405A
:1009500000280BD12068006A89100840002805D1C2
:1009600020680068400840002168086000BF2046F9
:10097000FFF7E3FF00213D20015500BF3C2001555A
:1009800000BF002010BD70B5CD06ED0E0124AC40B7
:100990002346046A9C430462046ACE06F60E15469A
:1009A000B5402C43046270BD70B504460E4601226A
:1009B00031462068FFF7E7FF1449206888420BD0D2
:1009C00015492068884207D014492068884203D01E
:1009D00013492068884201D1012000E0002000284E
:1009E00006D02068406C0121C9030843216848648F
:1009F000206885680C490D40062D1FD0C81F854210
:100A00001CD0206800680121084315E0002C01403B
:100A1000000400400020004000400140004401402C
:100A20000048014011110000070001001F080008E4
:100A300009080008F307000821680860002070BD5D
:100A400030B504460D46002229462068FFF79BFF7B
:100A5000FE49206888420BD0FD492068884207D0B3
:100A6000FC492068884203D0FB492068884201D1B4
:100A7000012000E00020002814D000BF2068006A98
:100A8000F649084000280CD12068006A8910084007
:100A9000002806D12068406C0121C90388432168E1
:100AA000486400BF00BF2068006AEC490840002885
:100AB0000BD12068006A89100840002805D1206801
:100AC0000068400840002168086000BF002030BD79
:100AD00070B504460E46002E06D0042E0BD0082E0C
:100AE00010D00C2E1CD114E02068C06802210843ED
:100AF0002168C86015E02068C068042108432168A7
:100B0000C8600EE02068C068082108432168C860FA
:100B100007E02068C068102108432168C86000E031
:100B200000BF00BF012231462068FFF72CFFC749F4
:100B3000206888420BD0C6492068884207D0C54942
:100B40002068884203D0C4492068884201D101202E
:100B500000E00020002806D02068406C0121C90375
:100B600008432168486420688568BD490D40062D0A
:100B700008D0C81F854205D02068006801210843BD
:100B800021680860002070BD30B504460D46002D78
:100B900006D0042D0BD0082D10D00C2D1CD114E044
:100BA0002068C068022188432168C86015E0206879
:100BB000C068042188432168C8600EE02068C068CE
:100BC000082188432168C86007E02068C0681021B8
:100BD00088432168C86000E000BF00BF00222946AA
:100BE0002068FFF7D0FE9949206888420BD09849C9
:100BF0002068884207D097492068884203D09649E8
:100C00002068884201D1012000E00020002814D093
:100C100000BF2068006A9149084000280CD1206874
:100C2000006A89100840002806D12068406C012124
:100C3000C90388432168486400BF00BF2068006A78
:100C40008649084000280BD12068006A89100840B6
:100C5000002805D12068006840084000216808602D
:100C600000BF002030BD704770B50546AC6A012159
:100C70003D200155606AA84202D10120207710E092
:100C8000A06AA84202D1022020770AE0E06AA842C6
:100C900002D10420207704E0206BA84201D1082073
:100CA00020772046FFF7DFFF0020207770BD7047D8
:100CB00070B50546AC6A01213D200155606AA84225
:100CC00002D10120207710E0A06AA84202D10220C0
:100CD00020770AE0E06AA84202D10420207704E0ED
:100CE000206BA84201D1082020772046FFF7DFFFC4
:100CF0000020207770BDFFB581B004460F46154631
:100D00003D20005D022801D105B0F0BD3D20005D11
:100D1000012809D1002D04D10498002801D0012018
:100D2000F2E702213D200155002F06D0042F21D0EB
:100D3000082F3CD00C2F75D156E04A49606AC16239
:100D40004949606A01634949606A416321680A460A
:100D50003432606A2946049B05F0A3F8002801D0CC
:100D60000120D1E72068C0680121490208432168B9
:100D7000C86058E03B49A06AC1623B49A06A016370
:100D80003A49A06A416321680A463832A06A294676
:100D9000049B05F086F8002801D00120B4E7206804
:100DA000C0680121890208432168C8603BE02D49E1
:100DB000E06AC1622C49E06A01632C49E06A416340
:100DC00021680A463C32E06A2946049B05F069F82E
:100DD000002801D0012097E72068C0680121C902DE
:100DE00008432168C8601EE01E49206BC1621E498D
:100DF000206B01631D49206B416321680A46403224
:100E0000206B2946049B05F04CF8002801D00120F6
:100E10007AE72068C0680121090308432168C86097
:100E200001E0FFE700BF00BF012239462068FFF75D
:100E3000AAFD0649206888421ED0054920688842DC
:100E40001AD004492068884216D011E0002C0140D5
:100E500000400140004401400048014011110000E1
:100E600007000100B10C0008690C0008F307000836
:100E7000FE492068884201D1012000E000200028BE
:100E800006D02068406C0121C903084321684864EA
:100E900020688668F6490E40062E08D0C81F864294
:100EA00005D02068006801210843216808600020FF
:100EB0002AE770B504460D46002D06D0042D0FD04C
:100EC000082D18D00C2D2CD120E02068C0680121FD
:100ED000490288432168C860606A05F096F821E0FD
:100EE0002068C0680121890288432168C860A06A1F
:100EF00005F08BF816E02068C0680121C90288431C
:100F00002168C860E06A05F080F80BE02068C068DE
:100F10000121090388432168C860206B05F075F83A
:100F200000E000BF00BF002229462068FFF72BFD2C
:100F3000D049206888420BD0CF492068884207D02A
:100F4000CE492068884203D0C8492068884201D130
:100F5000012000E00020002814D000BF2068006AB3
:100F6000C749084000280CD12068006A8910084051
:100F7000002806D12068406C0121C90388432168FC
:100F8000486400BF00BF2068006ABD4908400028CF
:100F90000BD12068006A89100840002805D120681C
:100FA0000068400840002168086000BF01213D2022
:100FB0000155002070BD704710B50446002C01D1CA
:100FC000012010BD3D20005D002805D100213C20FE
:100FD00001552046FFF7EFFF02213D200155211D5D
:100FE0002068FFF713FB01213D2001550020E8E7B1
:100FF000704710B5044602213D20015500BF20680E
:10100000006A9F49084000280BD12068006A8910B7
:101010000840002805D12068006840084000216889
:10102000086000BF2046FFF7E3FF00213D20015587
:1010300000BF3C20015500BF002010BD70B5044624
:101040000E46012231462068FFF79DFC8949206841
:1010500088420BD088492068884207D08749206899
:10106000884203D081492068884201D1012000E0F4
:101070000020002806D02068406C0121C9030843E5
:10108000216848642068856879490D40062D08D09C
:10109000C81F854205D020680068012108432168E7
:1010A0000860002070BD30B504460D460022294678
:1010B0002068FFF768FC6F49206888420BD06E49B2
:1010C0002068884207D06D492068884203D067496C
:1010D0002068884201D1012000E00020002814D0BF
:1010E00000BF2068006A6649084000280CD12068CB
:1010F000006A89100840002806D12068406C012150
:10110000C90388432168486400BF00BF2068006AA3
:101110005B49084000280BD12068006A891008400C
:10112000002805D120680068400840002168086058
:1011300000BF01213D200155002030BD70B504469F
:101140000E46002E06D0042E0BD0082E10D00C2EEA
:101150001CD114E02068C068022108432168C860DF
:1011600015E02068C068042108432168C8600EE0CB
:101170002068C068082108432168C86007E020682B
:10118000C068102108432168C86000E000BF00BFAC
:10119000012231462068FFF7F6FB36492068884275
:1011A0000BD035492068884207D0344920688842EE
:1011B00003D02E492068884201D1012000E00020A0
:1011C000002806D02068406C0121C903084321682B
:1011D00048642068856826490D40062D08D0C81F40
:1011E000854205D020680068012108432168086015
:1011F000002070BD30B504460D46002D06D0042DEC
:101200000BD0082D10D00C2D1CD114E02068C06824
:10121000022188432168C86015E02068C068042165
:1012200088432168C8600EE02068C06808218843B0
:101230002168C86007E02068C068102188432168E1
:10124000C86000E000BF00BF002229462068FFF709
:101250009AFB08492068884218D0074920688842CC
:1012600014D006492068884210D00BE000480140A5
:1012700007000100002C01400040014000440140F3
:1012800011110000FD492068884201D1012000E0D1
:101290000020002814D000BF2068006AF8490840E8
:1012A00000280CD12068006A89100840002806D167
:1012B0002068406C0121C90388432168486400BF4D
:1012C00000BF2068006AEE49084000280BD1206862
:1012D000006A89100840002805D12068006840088D
:1012E00040002168086000BF002030BDFFB581B01C
:1012F00004460F4615463D20005D022801D105B089
:10130000F0BD3D20005D012809D1002D04D10498D5
:10131000002801D00120F2E702213D200155002FD5
:1013200006D0042F21D0082F3CD00C2F75D156E0C9
:10133000D449606AC162D449606A0163D349606A72
:10134000416321680A463432606A2946049B04F0EE
:10135000A8FD002801D00120D1E72068C068012144
:10136000490208432168C86058E0C649A06AC162C2
:10137000C549A06A0163C549A06A416321680A465C
:101380003832A06A2946049B04F08BFD002801D066
:101390000120B4E72068C068012189020843216860
:1013A000C8603BE0B749E06AC162B749E06A0163DF
:1013B000B649E06A416321680A463C32E06A294640
:1013C000049B04F06EFD002801D0012097E72068FF
:1013D000C0680121C90208432168C8601EE0A9490C
:1013E000206BC162A849206B0163A849206B41634F
:1013F00021680A464032206B2946049B04F051FDC7
:10140000002801D001207AE72068C0680121090383
:1014100008432168C86001E0FFE700BF00BF012268
:1014200039462068FFF7AFFA9949206888420BD007
:1014300098492068884207D097492068884203D09D
:101440008E492068884201D1012000E00020002858
:1014500006D02068406C0121C90308432168486414
:10146000206886688D490E40062E08D0C81F864227
:1014700005D0206800680121084321680860002029
:101480003DE770B504460D46002D06D0042D0FD063
:10149000082D18D00C2D2CD120E02068C068012127
:1014A000490288432168C860606A04F0AEFD21E00B
:1014B0002068C0680121890288432168C860A06A49
:1014C00004F0A3FD16E02068C0680121C90288432A
:1014D0002168C860E06A04F098FD0BE02068C068ED
:1014E0000121090388432168C860206B04F08DFD49
:1014F00000E000BF00BF002229462068FFF743FA42
:101500006349206888420BD062492068884207D02E
:1015100061492068884203D058492068884201D137
:10152000012000E00020002814D000BF2068006ADD
:101530005349084000280CD12068006A89100840EF
:10154000002806D12068406C0121C9038843216826
:10155000486400BF00BF2068006A4949084000286D
:101560000BD12068006A89100840002805D1206846
:101570000068400840002168086000BF01213D204C
:101580000155002070BD704710B50446002C01D1F4
:10159000012010BD3D20005D002805D100213C2028
:1015A00001552046FFF7EFFF02213D200155211D87
:1015B0002068FFF72BF801213D2001550020E8E7C6
:1015C000704710B5044602213D20015500BF206838
:1015D000006A2B49084000280BD12068006A891056
:1015E0000840002805D120680068400840002168B4
:1015F000086000BF2046FFF7E3FF00213D200155B2
:1016000000BF3C20015500BF002010BD70B504464E
:101610000E46012231462068FFF7B5F92068806840
:101620001E4908400546062D08D0C81F854205D032
:10163000206800680121084321680860002070BD0F
:1016400030B504460D46002229462068FFF79BF975
:1016500000BF2068006A0A49084000280BD12068B2
:10166000006A89100840002805D1206800684008F9
:1016700040002168086000BF002030BD00480140E4
:1016800011110000B10C0008690C0008F3070008F4
:10169000002C0140004001400044014007000100CF
:1016A00070B504460E46002E06D0042E0BD0082E30
:1016B00010D00C2E1CD114E02068C0680221084311
:1016C0002168C86015E02068C068042108432168CB
:1016D000C8600EE02068C068082108432168C8601F
:1016E00007E02068C068102108432168C86000E056
:1016F00000BF00BF012231462068FFF744F920688F
:101700008568F9490D40062D08D0C81F854205D0CF
:10171000206800680121084321680860002070BD2E
:1017200030B504460D46002D06D0042D0BD0082DF3
:1017300010D00C2D1CD114E02068C0680221884311
:101740002168C86015E02068C068042188432168CA
:10175000C8600EE02068C068082188432168C8601E
:1017600007E02068C068102188432168C86000E055
:1017700000BF00BF002229462068FFF704F900BF20
:101780002068006AD949084000280BD12068006A07
:1017900089100840002805D12068006840084000F2
:1017A0002168086000BF002030BD704770B5054655
:1017B000AC6A01213D200155606AA84202D1012096
:1017C000207710E0A06AA84202D1022020770AE028
:1017D000E06AA84202D10420207704E0206BA842EE
:1017E00001D1082020772046FFF7DFFF0020207777
:1017F00070BD704770B50546AC6A01213D200155AA
:10180000606AA84202D10120207710E0A06AA842B5
:1018100002D1022020770AE0E06AA84202D1042027
:10182000207704E0206BA84201D1082020772046D1
:10183000FFF7DFFF0020207770BDFFB581B00446C1
:101840000E4617463D20005D022801D105B0F0BDCF
:101850003D20005D012809D1002F04D10498002803
:1018600001D00120F2E702213D200155002E06D0D3
:10187000042E21D0082E3CD00C2E75D156E09C4968
:10188000606AC1629B49606A01639B49606A416307
:10189000226811463431606A3A46049B04F001FB29
:1018A000002801D00120D1E72068C0680121490249
:1018B00008432168C86058E08D49A06AC1628D491B
:1018C000A06A01638C49A06A4163226811463831DD
:1018D000A06A3A46049B04F0E4FA002801D00120F3
:1018E000B4E72068C0680121890208432168C86004
:1018F0003BE07F49E06AC1627E49E06A01637E495C
:10190000E06A4163226811463C31E06A3A46049B32
:1019100004F0C7FA002801D0012097E72068C068CA
:101920000121C90208432168C8601EE07049206B8C
:10193000C1627049206B01636F49206B416322686B
:1019400011464031206B3A46049B04F0AAFA002865
:1019500001D001207AE72068C0680121090308430B
:101960002168C86001E0FFE700BF00BF01223146E7
:101970002068FFF708F8206885685B490D40062D50
:1019800008D0C81F854205D020680068012108439F
:1019900021680860002059E770B504460D46002D07
:1019A00006D0042D0FD0082D18D00C2D2CD120E0FE
:1019B0002068C0680121490288432168C860606AC4
:1019C00004F023FB21E02068C068012189028843DC
:1019D0002168C860A06A04F018FB16E02068C0689F
:1019E0000121C90288432168C860E06A04F00DFB48
:1019F0000BE02068C0680121090388432168C860A2
:101A0000206B04F002FB00E000BF00BF002229466B
:101A10002068FEF7B8FF00BF2068006A334908401D
:101A200000280BD12068006A89100840002805D1E1
:101A300020680068400840002168086000BF01215C
:101A40003D200155002070BD704770B504460D461D
:101A5000002C01D1012070BD3D20005D002805D182
:101A600000213C2001552046FFF7EEFF02213D20DA
:101A70000155211D2068FEF7C9FD20680068082176
:101A8000884321680860206800682843216808604E
:101A900001213D2001550020DDE7704710B50446C7
:101AA00002213D20015500BF2068006A0F4908400F
:101AB00000280BD12068006A89100840002805D151
:101AC00020680068400840002168086000BF204688
:101AD000FFF7E3FF00213D20015500BF3C200155E9
:101AE00000BF002010BD0000070001001111000020
:101AF000F5170008AD170008F307000830B50446D5
:101B00000D46012200212068FEF73DFF012204213D
:101B10002068FEF738FFFC49206888420BD0FB495B
:101B20002068884207D0FA492068884203D0F949E2
:101B30002068884201D1012000E00020002806D062
:101B40002068406C0121C9030843216848640020D3
:101B500030BD30B504460D46002211462068FEF720
:101B600012FF002204212068FEF70DFFE6492068DD
:101B700088420BD0E5492068884207D0E4492068B4
:101B8000884203D0E3492068884201D1012000E067
:101B90000020002814D000BF2068006ADE490840F9
:101BA00000280CD12068006A89100840002806D15E
:101BB0002068406C0121C90388432168486400BF44
:101BC00000BF2068006AD449084000280BD1206873
:101BD000006A89100840002805D120680068400884
:101BE00040002168086000BF002030BD30B50446C9
:101BF0000D462068C068022108432168C86020683B
:101C0000C068042108432168C860012200212068BF
:101C1000FEF7B9FE012204212068FEF7B4FEBA499E
:101C2000206888420BD0B9492068884207D0B8495B
:101C30002068884203D0B7492068884201D101203A
:101C400000E00020002806D02068406C0121C90374
:101C5000084321684864002030BD30B504460D4675
:101C60002068C068022188432168C8602068C06875
:101C7000042188432168C860002211462068FEF7CD
:101C800082FE002204212068FEF77DFE9E49206826
:101C900088420BD09D492068884207D09C49206823
:101CA000884203D09B492068884201D1012000E08E
:101CB0000020002814D000BF2068006A9649084020
:101CC00000280CD12068006A89100840002806D13D
:101CD0002068406C0121C90388432168486400BF23
:101CE00000BF2068006A8C49084000280BD120689A
:101CF000006A89100840002805D120680068400863
:101D000040002168086000BF002030BD7047F8B572
:101D100004460D46002C01D10120F8BD3D20005D98
:101D2000002805D100213C2001552046FFF7EEFF99
:101D300002213D20015520688068784908402168CB
:101D40008860211D2068FEF761FC20688068009093
:101D5000206886692068076A28680099084300900F
:101D60006F480640A9690902A868084306436D4800
:101D700006406D480640E9690902E86808430643E1
:101D800028690001296A09030843064322213846CD
:101D90008843074688213846884307466969090110
:101DA0006868084307430098216888602068866156
:101DB0002068076201213D2001550020ADE77047F2
:101DC00010B5044602213D20015500BF2068006A7D
:101DD0005149084000280BD12068006A891008404A
:101DE000002805D12068006840084000216808608C
:101DF00000BF2046FFF7E3FF00213D20015500BF53
:101E00003C20015500BF002010BD30B504460D46F2
:101E1000002D02D0042D0CD105E001220021206804
:101E2000FEF7B1FD10E0012204212068FEF7ABFDB2
:101E30000AE0012200212068FEF7A5FD012204210D
:101E40002068FEF7A0FD00BF00BF206800680121E8
:101E5000084321680860002030BD30B504460D46B7
:101E6000002D02D0042D0CD105E00022114620687F
:101E7000FEF789FD10E0002204212068FEF783FDB3
:101E80000AE0002211462068FEF77DFD00220421B1
:101E90002068FEF778FD00BF00BF00BF2068006A21
:101EA0001D49084000280BD12068006A89100840AD
:101EB000002805D1206800684008400021680860BB
:101EC00000BF002030BD30B504460D46002D02D0C5
:101ED000042D2BD10BE0012200212068FEF753FDD9
:101EE0002068C068022108432168C86035E00122EB
:101EF00004212068FEF747FD2068C06804210843DC
:101F00002168C86029E00000002C01400040014029
:101F1000004401400048014011110000F8BFFEFFDD
:101F2000FCFCFFFFF3F3FFFF0F0FFFFF0122002177
:101F30002068FEF728FD012204212068FEF723FD1A
:101F40002068C068022108432168C8602068C06812
:101F5000042108432168C86000BF00BF20680068F2
:101F60000121084321680860002030BD30B50446D7
:101F70000D46002D0BD1002211462068FEF703FD0F
:101F80002068C068022188432168C86023E0042DCE
:101F90000BD1002204212068FEF7F5FC2068C06800
:101FA000042188432168C86015E00022114620689A
:101FB000FEF7E9FC002204212068FEF7E4FC20681B
:101FC000C068022188432168C8602068C068042175
:101FD00088432168C86000BF2068006AFE49084045
:101FE00000280BD12068006A89100840002805D11C
:101FF00020680068400840002168086000BF012197
:102000003D200155002030BDF8B504460E46174668
:102010001D463D20005D022800D1F8BD3D20005D39
:1020200001280BD1002F01D0002D04D106980028E3
:1020300001D00120F1E702213D200155002E04D0FE
:10204000042E2AD03C2E7AD14FE0E449606AC16266
:10205000E349606A0163E349606A416322681146AB
:102060003431606A3A46069B03F01BFF002801D01A
:102070000120D2E72068C068012149020843216895
:10208000C8602068006801210843216808600122B7
:1020900000212068FEF777FC72E0D049A06AC16297
:1020A000CF49A06A0163CF49A06A41632268114603
:1020B0003831A06A2A46069B03F0F3FE002801D0BF
:1020C0000120AAE72068C06801218902084321682D
:1020D000C860206800680121084321680860012267
:1020E00004212068FEF74FFC4AE0BC49606AC162E7
:1020F000BB49606A0163BB49606A4163226811465B
:102100003431606A3A46069B03F0CBFE002801D0CA
:10211000012082E7B149A06AC162B149A06A0163A6
:10212000B049A06A4163226811463831A06A2A4644
:10213000069B03F0B6FE002802D001206DE71EE0EA
:1021400020680068012108432168086001220021FD
:102150002068FEF718FC012204212068FEF713FC1A
:102160002068C0680121490208432168C8602068CE
:10217000C0680121890208432168C86000E000BFEF
:1021800000BF002049E770B504460D46002D0FD171
:10219000002211462068FEF7F6FB2068C068012186
:1021A000490288432168C860606A03F02EFF2EE070
:1021B000042D0ED1002204212068FEF7E4FB2068E4
:1021C000C068290288432168C860A06A03F01DFF27
:1021D0001DE0002211462068FEF7D5FB00220421F5
:1021E0002068FEF7D0FB2068C068012149028843BF
:1021F0002168C8602068C06801218902884321687D
:10220000C860606A03F001FFA06A03F0FEFE00BF31
:102210002068006A7049084000280BD12068006AD5
:1022200089100840002805D1206800684008400057
:102230002168086000BF01213D200155002070BDCC
:102240007047704710B504462068006902210840B5
:10225000400800281CD02068C068084040080028BA
:1022600016D0481F21680861012020772068806906
:102270008007800F002803D02046FFF7BAFA05E058
:102280002046FFF7DEFF2046FEF711FD00202077F5
:102290002068006904210840800800281DD02068BB
:1022A000C06808408008002817D0C843216808612A
:1022B0000220207720688069032109020840002855
:1022C00003D02046FFF795FA05E02046FFF7B9FF57
:1022D0002046FEF7ECFC00202077206800690821EA
:1022E0000840C00800281CD02068C0680840C0080A
:1022F000002816D0C8432168086104202077206890
:10230000C0698007800F002803D02046FFF771FACC
:1023100005E02046FFF795FF2046FEF7C8FC0020A9
:1023200020772068006910210840000900281DD08E
:102330002068C06808400009002817D0C8432168F9
:102340000861082020772068C0690321090208403D
:10235000002803D02046FFF74CFA05E02046FFF79F
:1023600070FF2046FEF7A3FC00202077206800695C
:10237000C007C00F01214840484000280CD0206809
:10238000C068084048404840002805D0C81E216861
:102390000861204607F080FA206800698021084023
:1023A000C00900280BD02068C0680840C009002878
:1023B00005D0C84321680861204602F025FB20684B
:1023C0000069FF2101310840000A002815D020686B
:1023D000C0688021084007E011110000F5170008CF
:1023E000AD170008F3070008C009002805D0F7481A
:1023F00021680861204602F008FB2068006940213E
:102400000840800900280BD02068C0680840800977
:10241000002805D0C843216808612046FFF710FF57
:102420002068006920210840400900280BD020685E
:10243000C06808404009002805D0C84321680861E9
:10244000204602F08BF810BD70B5056A01263605EE
:10245000B5430562036A4468426DDD4D2A400D684C
:102460002D022A4376001D46B5432B460D892D05C6
:102470002B43D84DA84208D0D74DA84205D0D74D00
:10248000A84202D0D64DA84207D10126B60425465F
:10249000B5432C464D69AD022C43446042654D68FE
:1024A000C565036270BD70B5056A01263604B54383
:1024B0000562036A4468426DCA4D2A400D682A438A
:1024C00076001D46B5432B460D892D042B43C14D87
:1024D000A84208D0C04DA84205D0C04DA84202D0A5
:1024E000BF4DA84207D1012636042546B5432C46E8
:1024F0004D692D022C43446042654D688565036239
:1025000070BD70B5056A01263603B5430562036ADE
:102510004468C269AE4D2A40032636021546B543CB
:102520002A460D682D022A43012676031D46B5432F
:102530002B468D682D032B43A64DA84208D0A64DEF
:10254000A84205D0A54DA84202D0A54DA84207D16A
:102550000126B6032546B5432C464D69AD012C43F3
:102560004460C2614D680564036270BD70B5056A60
:10257000FF260136B5430562026A4368C469994D76
:102580002C40A408A4000D682C4376001546B543E2
:102590002A468D682D022A438E4DA84200D10BE0B9
:1025A0008D4DA84200D100BF8C4DA84200D100BF84
:1025B0008B4DA8420CD10BE00126F6021546B5431F
:1025C0002A46CD682D022A4376101546B5432A4681
:1025D000804DA84208D0804DA84205D07F4DA8422A
:1025E00002D07F4DA8420ED1012636031D46B543C9
:1025F0002B4676001D46B5432B464D692D012B43D6
:102600008D692D012B434360C4614D68C56302622F
:1026100070BD70B5056A1026B5430562026A43684D
:1026200084696B4D2C40032636022546B5432C4663
:102630000D682D022C4320261546B5432A468D6889
:102640002D012A43634DA84200D10BE0624DA84200
:1026500000D100BF614DA84200D100BF604DA8422B
:102660000BD10AE080261546B5432A46CD682D01D8
:102670002A4340261546B5432A46564DA84208D05F
:10268000554DA84205D0554DA84202D0544DA84200
:102690000ED10126B6021D46B5432B4676001D46D7
:1026A000B5432B464D69AD002B438D69AD002B43DF
:1026B000436084614D688563026270BD70B5056AD0
:1026C0006D086D000562026A43688469454D2C40BF
:1026D000A408A4000D682C4302261546B5432A46DB
:1026E0008D682A433B4DA84200D10BE03A4DA842E9
:1026F00000D107E0394DA84200D103E0384DA8428F
:102700000AD100BF08261546B5432A46CD682A439C
:1027100004261546B5432A462E4DA84208D02E4D14
:10272000A84205D02D4DA84202D02D4DA8420CD173
:10273000FF2601361D46B5432B4676001D46B543A0
:102740002B464D692B438D692B43436084614D6853
:102750004563026270BD70B504460E46154600BF63
:102760003C20005D012801D1022070BD01213C20E8
:10277000015500BF02213D2001550C2D1BD006DC68
:10278000002D09D0042D0CD0082D32D10EE0102DD3
:1027900016D0142D2DD127E031462068FFF78EFF8B
:1027A00028E031462068FFF734FF23E031462068F7
:1027B000FFF7DCFE1EE031462068FFF7A2FE19E0BD
:1027C00031462068FFF76FFE14E00000FFFEFFFFB8
:1027D000FF8FFFFE002C01400040014000440140FB
:1027E000004801408FFFFEFF31462068FFF72CFEB6
:1027F00000E000BF00BF01213D20015500BF0021C6
:102800003C20015500BF0020AFE7F0B50C46066A3A
:1028100001273F03BE430662C169056A03263602EB
:102820000F46B7433946160231430F2636030F468B
:10283000B74339461E030F273F033E403143052669
:1028400076032F46B7433D46260305277F033E40C8
:102850003543C1610562F0BDF0B50C46066AFF273D
:102860000137BE430662C169056A890889000E46C0
:1028700016433146F0260F46B74339461E01F0276E
:102880003E403143052676022F46B7433D46260299
:1028900005277F023E403543C1610562F0BDF0B5BA
:1028A0000C46066A1027BE4306628169056A032644
:1028B00036020F46B7433946160231430F26360318
:1028C0000F46B74339461E030F273F033E403143AF
:1028D000A0262F46B7433D462601A0273E4035435C
:1028E00081610562F0BDF0B50C46066A7608760097
:1028F00006628169056AF74EB04205D0F64EB042D5
:1029000002D0F64EB04201D1012600E00026002E92
:1029100005D0890889000E461643314601E001269C
:102920003143F0260F46B74339461E01F0273E409B
:1029300031430A262F46B7433D4626403543816141
:102940000562F0BDF8B504460D46164600BF3C20B2
:10295000005D012801D10220F8BD01213C20015574
:1029600000BF02213D200155002E12D1EB686A689C
:1029700029682068FFF7B7FF206880690C21884329
:102980002168886120688069A96808432168886196
:102990003FE0042E14D1EB686A6829682068FFF7CD
:1029A0007EFF20688069032189028843216888614D
:1029B00020688069A968090208432168886128E0C5
:1029C000082E12D1EB686A6829682068FFF744FF77
:1029D0002068C0690C2188432168C8612068C069EB
:1029E000A96808432168C86113E0EB686A68296830
:1029F0002068FFF70AFF2068C06903218902884325
:102A00002168C8612068C069A96809020843216873
:102A1000C86101213D20015500BF00213C20015526
:102A200000BF002098E770B504460D46164600BF6B
:102A30003C20005D012801D1022070BD01213C2015
:102A4000015500BF02213D2001550C2E54D006DC5B
:102A5000002E09D0042E1ED0082E7DD135E0102E78
:102A600064D0142EF9D17AE029462068FFF726FEBB
:102A7000206880690821084321688861206880698E
:102A80000421884321688861206880692969084396
:102A9000216888617EE029462068FFF7BAFD20683A
:102AA00080690121C9020843216888612068806922
:102AB0000121890288432168886120688069296929
:102AC000090208432168886164E029462068FFF70D
:102AD0004DFD2068C069082108432168C86120684D
:102AE000C069042188432168C8612068C0692969D8
:102AF00008432168C8614DE029462068FFF701FDC1
:102B00002068C0690121C90208432168C8612068A2
:102B1000C0690121890288432168C8612068C069B1
:102B20002969090208432168C86133E02946206801
:102B3000FFF7B9FC2068406D08210843216848650B
:102B40002068406D04218843216848652068406DF5
:102B500029690843216800E01BE048651AE029461E
:102B60002068FFF771FC2068406D0121C90208430D
:102B7000216848652068406D0121890288432168E9
:102B800048652068406D2969090208432168486545
:102B900000E000BF00BF01213D20015500BF002122
:102BA0003C20015500BF002047E7F0B589B004463E
:102BB0000D4616461F46BE427DD000BF3C20005D3C
:102BC000012802D1022009B0F0BD01213C200155AD
:102BD00000BF02213D2001552868029068680390DB
:102BE000A8680490E86805902869079068690890CB
:102BF000002E02D0042E0AD104E002A92068FFF7BB
:102C00005DFD05E002A92068FFF703FD00E000BFBD
:102C100000BF002F02D0042F4ED125E02B6AEA69B5
:102C2000A96920680190FFF75EFE206880690C2189
:102C300088432168886120688068294908402168A4
:102C40008860206880685021084321688860206877
:102C500080682449084021688860206880680621CF
:102C600008432168886028E02B6AEA69A96920681E
:102C70000190FFF714FE20688069032189028843D0
:102C8000216888612068806815490840216888604B
:102C90002068806860210843216888602068806817
:102CA0001049084021688860206880680621084330
:102CB0002168886001E00BE000BF00BF01213D20DA
:102CC000015500BF00213C20015500BF00207AE7DC
:102CD000012078E7002C0140000400400040014042
:102CE0008FFFCFFFF8FFFEFF704770B50446A56A5F
:102CF00001213D2041552846FFF7F6FF70BD70B514
:102D00000446A56A01213D2041552846FFF798FA5F
:102D100070BDFFB581B0044616461F460A9D3D2092
:102D2000005D022801D105B0F0BD3D20005D012805
:102D300007D1002F02D1002D00D0F4E702213D2061
:102D4000015530460122D202B11A964260D00DDC04
:102D5000FF380138002815D0FF380138002828D066
:102D6000FF38FF38023800287ED13AE00120C00247
:102D7000081A65D001210903401A7CD04900401A85
:102D8000F2D18FE0FD48216AC862FD48216A0863DC
:102D9000FC48216A4863290A4B1C21680A464C32C8
:102DA0003946206A03F07DF8002801D00120BAE7F7
:102DB00091E0F549606AC162F449606A0163F149D2
:102DC000606A4163280A431C206802464C32606AEC
:102DD0003946009003F065F8002801D00120A2E7F1
:102DE00079E0E949A06AC162E849A06A0163E5495E
:102DF000A06A4163290A4B1C21680A464C323946B5
:102E0000A06A03F04EF8002801D001208BE762E0B1
:102E1000DD49E06AC162DD49E06A0163D949E06ADF
:102E20004163280A431C206802464C32E06A394656
:102E3000009003F036F8002801D0012073E74AE043
:102E4000D149206BC162D149206B0163CD49206B10
:102E50004163280A431C206802464C32206B3946E5
:102E6000009003F01EF801E034E004E0002801D0F7
:102E7000012058E72FE0C649606BC162C549606B0D
:102E80000163C049606B4163290A4B1C21680A46F3
:102E90004C323946606B03F004F8002801D0012061
:102EA00041E718E0BC49A06BC162BC49A06B01635B
:102EB000B449A06B4163280A431C206802464C3287
:102EC000A06B3946009002F0ECFF002801D00120F1
:102ED00029E700E000BF00BF02982843216888640A
:102EE0002068C06830432168C86001213D20015539
:102EF000002018E770B504460D460026284601223A
:102F0000D202A91A954229D00DDCFF3801380028D9
:102F100015D0FF380138002816D0FF38FF380238A6
:102F200000282FD115E00120C002081A1BD0012172
:102F30000903401A1CD04900401A23D11DE0206A21
:102F400003F063F806461EE0606A03F05EF806468A
:102F500019E0A06A03F059F8064614E0E06A03F0AD
:102F600054F806460FE0206B03F04FF806460AE0DF
:102F7000606B03F04AF8064605E0A06B03F045F8E5
:102F8000064600E000BF00BF002E04D12068C068E4
:102F9000A8432168C860304670BDFFB581B00446C3
:102FA00016461F460A9D3D20005D022801D105B04E
:102FB000F0BD3D20005D012807D1002F02D1002D7A
:102FC00000D0F4E702213D20015530460122D20213
:102FD000B11A964260D00DDCFF380138002815D0B8
:102FE000FF380138002828D0FF38FF380238002881
:102FF0007ED13AE00120C002081A65D00121090300
:10300000401A7CD04900401AF2D18FE05B48216A17
:10301000C8625B48216A08635A48216A48632A0AE1
:10302000531C226811464C313A46206A02F039FF9F
:10303000002801D00120BAE791E05949606AC162D5
:103040005849606A01634F49606A4163280A431C1A
:10305000206801464C31606A3A46009002F021FF38
:10306000002801D00120A2E779E04D49A06AC162A1
:103070004C49A06A01634349A06A41632A0A531C70
:10308000226811464C313A46A06A02F00AFF002835
:1030900001D001208BE762E04149E06AC162414909
:1030A000E06A01633749E06A4163280A431C2068EB
:1030B00001464C31E06A3A46009002F0F2FE0028E8
:1030C00001D0012073E74AE03549206BC1623549E0
:1030D000206B01632B49206B4163280A431C206845
:1030E00001464C31206B3A46009002F0DAFE01E0D6
:1030F00034E004E0002801D0012058E72FE0244903
:10310000606BC1622349606B01631E49606B416360
:10311000290A4B1C21684C3100913A46606B02F041
:10312000C0FE002801D0012041E718E01A49A06B39
:10313000C1621A49A06B01631249A06B4163280A5E
:10314000431C206801464C31A06B3A46009002F0C7
:10315000A8FE002801D0012029E700E000BF00BF41
:1031600002982843216888642068C0683043216839
:10317000C86001213D200155002018E71F08000804
:1031800009080008F3070008B10C0008690C0008E2
:103190005F45000849450008FF2C0008EB2C00089B
:1031A000F5170008AD17000870B504460D46002657
:1031B00028460122D202A91A954229D00DDCFF38F7
:1031C0000138002815D0FF380138002816D0FF3804
:1031D000FF38023800282FD115E00120C002081A5C
:1031E0001BD001210903401A1CD04900401A23D1E9
:1031F0001DE0206A02F009FF06461EE0606A02F048
:1032000004FF064619E0A06A02F0FFFE064614E03D
:10321000E06A02F0FAFE06460FE0206B02F0F5FECF
:1032200006460AE0606B02F0F0FE064605E0A06B81
:1032300002F0EBFE064600E000BF00BF002E04D106
:103240002068C068A8432168C860304670BD024647
:1032500000BF3C20805C012801D10220704701237F
:103260003C20835400BF02233D20835410684161F9
:1032700001233D20835400BF00233C20835400BF22
:103280000020EBE770B50C468168FF2636020D463C
:10329000B54329461D02154325432943816070BD6E
:1032A000F0B504460D46164600BF3C20005D0128DF
:1032B00001D10220F0BD01213C20015500BF0221B7
:1032C0003D2001556868002802D001282DD10CE06E
:1032D00020688068FE490840216888602068006D89
:1032E000400840002168086520E0E868002809D00F
:1032F00001213D20015500BF00213C20015500BFA8
:103300000120D7E72B69AA68E9682068FFF7BAFFB0
:103310002068806808210843216888602068006D63
:10332000400840002168086500E000BF00BF0C2E87
:1033300041D006DC002E09D0042E18D0082E72D100
:1033400028E0102E4AD0142E6DD158E028680028AD
:1033500006D020688069802108432168886105E0E3
:103360002068806980218843216888615CE0286842
:10337000002807D0206880690121C903084321681B
:10338000886106E0206880690121C90388432168BB
:10339000886149E02868002806D02068C06980213B
:1033A00008432168C86105E02068C069802188431E
:1033B0002168C86138E02868002807D02068C06903
:1033C0000121C90308432168C86106E02068C0697B
:1033D0000121C90388432168C86125E028680028C5
:1033E00006D02068406D802108432168486505E0CB
:1033F0002068406D802188432168486514E0286872
:10340000002807D02068406D0121C90308432168C6
:10341000486506E02068406D0121C90388432168A2
:10342000486501E0FFE700BF00BF01213D200155D5
:1034300000BF00213C20015500BF00203AE70A46AA
:103440008168A44B194007231343194381607047D7
:1034500070B50B461446026A056A6D086D00056278
:103460008169F0260D46B5432946250129430A26E0
:103470001546B5432A4615461D432A468161026218
:1034800070BD70B50B461446056A1026B54305623B
:103490008169026A0F2636030D46B5432946250386
:1034A0002943A0261546B5432A461D012A438161BA
:1034B000026270BDF8B504460D4600BF3C20005DB9
:1034C000012801D10220F8BD01213C20015500BF97
:1034D00002213D200155206886687F480640FF2173
:1034E00009023046884306462068866028685028CE
:1034F00034D00CDC202851D004DC00284CD010281B
:1035000052D14AE030284AD040284DD13AE06028D4
:103510002ED0702807D001210903401A02D0401A8A
:1035200042D10DE041E0EB686A68A9682068FFF7C6
:10353000A9FE20688668772006432068866034E00C
:10354000EB686A68A9682068FFF79CFE20688068BD
:103550000121890308432168886026E0EA686968D8
:103560002068FFF775FF50212068FFF768FF1CE017
:10357000EA6869682068FFF784FF60212068FFF728
:103580005EFF12E0EA6869682068FFF761FF40218A
:103590002068FFF754FF08E000BF00BF00BF2968A4
:1035A0002068FFF74CFF00E000BF00BF01213D2075
:1035B000015500BF00213C20015500BF002082E7DB
:1035C00010B502460B461068416880240846A043A7
:1035D000014608461843014610684160002010BDAE
:1035E000FEB505460C46286886683A48064060687D
:1035F00006433748FF38064020680643286886603F
:1036000060680107090F00293DD10011030007F090
:10361000ADFF08363738390D2A30053A2369A268DC
:10362000E16828680090FFF72DFE2DE0206805284E
:1036300001D10120FEBD2868006A01902868006A57
:10364000400840002968086228688769F0213846E8
:10365000884307462069000107432868876101986D
:103660002968086210E02269A1682868FFF7F0FE67
:103670000AE02269A1682868FFF703FF04E000BFA1
:1036800000BF00BF00E000BF00BF0020D2E770B560
:1036900004460D4600BF3C20005D012801D10220F8
:1036A00070BD01213C20015500BF02213D20015584
:1036B00029462046FFF794FF00280FD001213D2026
:1036C000015500BF00213C20015500BF0120E7E764
:1036D000F700FFFF8FFFCFFF88FFCEFF2068C06895
:1036E000402188432168C8602068C068012189039F
:1036F00088432168C86001213D20015500BF002199
:103700003C20015500BF0020CAE770B504460D46B5
:1037100000BF3C20005D012801D1022070BD0121C5
:103720003C20015500BF02213D200155294620467D
:10373000FFF756FF002809D001213D20015500BFA9
:1037400000213C20015500BF0120E7E72068C06848
:10375000402108432168C8602068C06801218903AE
:1037600088432168C86001213D20015500BF002128
:103770003C20015500BF0020D0E702460020002970
:1037800006D0042907D0082908D00C290CD108E05C
:103790001368586B09E01368986B06E01368D86BE0
:1037A00003E01368186C00E000BF00BF70470146DB
:1037B0003D20405C704701463D20405C704701461B
:1037C0003D20405C704701463D20405C704701460B
:1037D0003D20405C704701463D20405C7047000042
:1037E000704730B587B004460D46002C02D1012049
:1037F00007B030BD3D20005D002805D100213C20F0
:1038000001552046FFF7ECFF02213D200155211D07
:103810002068FCF7FBFEAB68296803222068FFF7ED
:1038200062F8206880690C218843216888612068DB
:103830008069696808432168886120684068802140
:1038400008432168486020688068F849084021687A
:10385000886020688068402108432168886020686B
:103860008068F349084021688860206880680421E6
:103870000843216888600020049005907020009023
:103880000020069003900290E86801906946206845
:10389000FEF7BFFE206840687021884321684860B9
:1038A00020684068502108432168486001213D207C
:1038B000015500209CE7704710B5044602213D20C9
:1038C000015500BF2068006ADA49084000280BD182
:1038D0002068006A89100840002805D12068006827
:1038E000400840002168086000BF2046FFF7E3FF62
:1038F00000213D20015500BF3C20015500BF0020A4
:1039000010BD70B50446012200212068FDF73BF888
:1039100020688068C649C94308400546062D08D07E
:10392000C81F854205D0206800680121084321682E
:103930000860002070BD10B50446002211462068C2
:10394000FDF721F800BF2068006ABA490840002846
:103950000BD12068006A89100840002805D1206832
:103960000068400840002168086000BF002010BDCA
:1039700070B504462068C068022108432168C86009
:10398000012200212068FCF7FEFF20688068A8491A
:10399000C94308400546062D08D0C81F854205D0FA
:1039A000206800680121084321680860002070BD7C
:1039B00010B50446002211462068FCF7E4FF206899
:1039C000C068022188432168C86000BF2068006A7F
:1039D0009849084000280BD12068006A89100840E7
:1039E000002805D120680068400840002168086070
:1039F00000BF002010BDF8B504460D4616463D2018
:103A0000005D022800D1F8BD3D20005D012807D1EE
:103A1000002D02D1002E00D0F5E702213D200155F6
:103A2000012200212068FCF7AEFF8349606AC16271
:103A30008249606A01638249606A41632268114673
:103A4000343133462A46606A02F02BFA002801D04E
:103A50000120D8E72068C068012149020843216895
:103A6000C860206887687249C9430F40062F08D094
:103A7000C81F874205D020680068012108432168DB
:103A800008600020BFE710B50446002211462068F8
:103A9000FCF779FF2068C06801214902884321684A
:103AA000C860606A02F0B1FA00BF2068006A61492C
:103AB000084000280BD12068006A891008400028BF
:103AC00005D120680068400840002168086000BFF8
:103AD000002010BD70B5CD06ED0E0424AC40234689
:103AE000046A9C430462046ACE06F60E1546B5408D
:103AF0002C43046270BD70B504460E460422314664
:103B00002068FFF7E7FF2068406C0121C9030843E4
:103B100021684864206880684549C94308400546D3
:103B2000062D08D0C81F854205D0206800680121F5
:103B3000084321680860002070BD70B504460D463A
:103B4000002229462068FFF7C5FF00BF2068006AF1
:103B50003849084000280CD12068006A89100840C4
:103B6000002806D12068406C0121C90388432168E0
:103B7000486400BF00BF2068006A2E490840002842
:103B80000BD12068006A89100840002805D1206800
:103B90000068400840002168086000BF002070BD38
:103BA00070B504460E46002E04D0042E09D0082E0F
:103BB00015D10DE02068C068022108432168C86063
:103BC0000EE02068C068042108432168C86007E04F
:103BD0002068C068082108432168C86000E000BF71
:103BE00000BF2068C068802108432168C8600422A3
:103BF00031462068FFF76EFF2068406C0121C90341
:103C0000084321684864206885680949C9430D4014
:103C1000062D08D0C81F854205D020680068012104
:103C2000084321680860002070BD00008FFFCFFFAF
:103C3000F8FFFEFF11110000F5170008AD1700088E
:103C4000F307000870B504460D46002D04D0042D7E
:103C500009D0082D15D10DE02068C06802218843E5
:103C60002168C8600EE02068C0680421884321688C
:103C7000C86007E02068C068082188432168C860E0
:103C800000E000BF00BF002229462068FFF722FFA6
:103C90002068066AFE483040002805D12068C068C8
:103CA000802188432168C86000BF2068006AF94904
:103CB000084000280CD12068006A891008400028BC
:103CC00006D12068406C0121C903884321684864FB
:103CD00000BF00BF2068006AEE49084000280BD1F1
:103CE0002068006A89100840002805D12068006813
:103CF000400840002168086000BF002070BDFFB58B
:103D000081B004460F4615463D20005D022801D1D2
:103D100005B0F0BD3D20005D012809D1002D04D182
:103D20000498002801D00120F2E702213D2001552E
:103D3000002F04D0042F1FD0082F57D139E0D649C7
:103D4000606AC162D549606A0163D549606A4163AE
:103D500021680A463432606A2946049B02F0A1F8C1
:103D6000002801D00120D3E72068C0680121490262
:103D700008432168C8603AE0C749A06AC162C749E0
:103D8000A06A0163C649A06A416321680A463832C5
:103D9000A06A2946049B02F084F8002801D0012083
:103DA000B6E72068C0680121890208432168C8601D
:103DB0001DE0B949E06AC162B849E06A0163B849E7
:103DC000E06A416321680A463C32E06A2946049B66
:103DD00002F067F8002801D0012099E72068C06848
:103DE0000121C90208432168C86000E000BF00BF8C
:103DF000042239462068FFF76DFE2068406C0121DF
:103E0000C90308432168486420688668A5490E40B4
:103E1000062E08D0C81F864205D020680068012100
:103E2000084321680860002072E770B504460D461B
:103E3000002D04D0042D0DD0082D21D115E02068CF
:103E4000C0680121490288432168C860606A02F0A5
:103E5000DCF816E02068C0680121890288432168E7
:103E6000C860A06A02F0D1F80BE02068C0680121A8
:103E7000C90288432168C860E06A02F0C6F800E021
:103E800000BF00BF002229462068FFF723FE00BFC5
:103E90002068006A7F49084000280CD12068006A29
:103EA00089100840002806D12068406C0121C90310
:103EB00088432168486400BF00BF2068006A7549D4
:103EC000084000280BD12068006A891008400028AB
:103ED00005D120680068400840002168086000BFE4
:103EE00001213D200155002070BD70B504460E46ED
:103EF000042231462068FFF7EDFD2068406C012167
:103F0000C9030843216848642068806865490840FF
:103F10000546062D08D0C81F854205D020680068D8
:103F20000121084321680860002070BD70B5044677
:103F30000D46002229462068FFF7CCFD00BF20680F
:103F4000006A5449084000280CD12068006A891092
:103F50000840002806D12068406C0121C90388432D
:103F60002168486400BF00BF2068006A49490840D2
:103F700000280BD12068006A89100840002805D16C
:103F800020680068400840002168086000BF0020E9
:103F900070BD70B504460E46002E04D0042E09D024
:103FA000082E15D10DE02068C06802210843216861
:103FB000C8600EE02068C068042108432168C8601A
:103FC00007E02068C068082108432168C86000E055
:103FD00000BF00BF2068C068802108432168C86016
:103FE000042231462068FFF775FD2068406C0121EE
:103FF000C9030843216848642068856829490D4041
:10400000062D08D0C81F854205D020680068012110
:10401000084321680860002070BD70B504460D4655
:10402000002D04D0042D09D0082D15D10DE02068F5
:10403000C068022188432168C8600EE02068C0681B
:10404000042188432168C86007E02068C06808210F
:1040500088432168C86000E000BF00BF00222946F5
:104060002068FFF737FD2068066A094830400028BD
:1040700005D12068C068802188432168C86000BFDE
:104080002068006A03490840002819D120680BE025
:104090004404000011110000B10C0008690C000874
:1040A000F307000807000100006A89100840002893
:1040B00006D12068406C0121C90388432168486407
:1040C00000BF00BF2068006AF649084000280BD1F5
:1040D0002068006A89100840002805D1206800681F
:1040E000400840002168086000BF002070BDFFB597
:1040F00081B004460F4615463D20005D022801D1DF
:1041000005B0F0BD3D20005D012809D1002D04D18E
:104110000498002801D00120F2E702213D2001553A
:10412000002F04D0042F1FD0082F57D139E0DE49CB
:10413000606AC162DD49606A0163DD49606A4163AA
:1041400021680A463432606A2946049B01F0A9FEC0
:10415000002801D00120D3E72068C068012149026E
:1041600008432168C8603AE0CF49A06AC162CF49DC
:10417000A06A0163CE49A06A416321680A463832C9
:10418000A06A2946049B01F08CFE002801D0012082
:10419000B6E72068C0680121890208432168C86029
:1041A0001DE0C149E06AC162C049E06A0163C049DB
:1041B000E06A416321680A463C32E06A2946049B72
:1041C00001F06FFE002801D0012099E72068C06847
:1041D0000121C90208432168C86000E000BF00BF98
:1041E000042239462068FFF775FC2068406C0121E5
:1041F000C90308432168486420688668AD490E40B9
:10420000062E08D0C81F864205D02068006801210C
:10421000084321680860002072E770B504460D4627
:10422000002D04D0042D0DD0082D21D115E02068DB
:10423000C0680121490288432168C860606A01F0B2
:10424000E4FE16E02068C0680121890288432168E5
:10425000C860A06A01F0D9FE0BE02068C0680121A7
:10426000C90288432168C860E06A01F0CEFE00E020
:1042700000BF00BF002229462068FFF72BFC00BFCB
:104280002068006A8749084000280CD12068006A2D
:1042900089100840002806D12068406C0121C9031C
:1042A00088432168486400BF00BF2068006A7D49D8
:1042B000084000280BD12068006A891008400028B7
:1042C00005D120680068400840002168086000BFF0
:1042D00001213D200155002070BD70B504460D46FA
:1042E000042229462068FFF7F5FB2068406C012175
:1042F000C903084321684864002070BD70B50446B6
:104300000D46002229462068FFF7E4FB00BF206825
:10431000006A6449084000280CD12068006A8910AE
:104320000840002806D12068406C0121C903884359
:104330002168486400BF00BF2068006A59490840EE
:1043400000280BD12068006A89100840002805D198
:1043500020680068400840002168086000BF002015
:1043600070BD70B504460D462068C0680221084340
:104370002168C8602068C068042108432168C860BB
:10438000042229462068FFF7A5FB2068406C012124
:10439000C903084321684864002070BD70B5044615
:1043A0000D462068C068022188432168C8602068E3
:1043B000C068042188432168C8600022294620681B
:1043C000FFF788FB00BF2068006A364908400028D4
:1043D0000CD12068006A89100840002806D12068A6
:1043E000406C0121C90388432168486400BF00BFB5
:1043F0002068006A2B49084000280BD12068006A19
:1044000089100840002805D1206800684008400055
:104410002168086000BF002070BD10B5034600BFD2
:104420003C20C05C012801D1022010BD01243C20A9
:10443000C45400BF002905D0102903D0202901D081
:1044400030290AD1186880681B4C20401C68A06085
:104450001868806808431C68A060186840680124D8
:1044600020431C686060186840680424A0431C68EE
:1044700060601868406810431C6860601868C06815
:104480002024A0431C68E0601868C068012464030D
:10449000A0431C68E06000BF00243C20C45400BF5F
:1044A0000020C2E711110000B10C0008690C0008DF
:1044B000F3070008070001008FFFCFFF10B5034688
:1044C00000BF3C20C05C012801D1022010BD0124A6
:1044D0003C20C45400BF002905D0102903D0202956
:1044E00001D030290AD118688068F84C20401C6837
:1044F000A0601868806808431C68A060186840685D
:10450000012420431C686060186840680424A043AC
:104510001C6860601868406810431C686060186818
:10452000C06801246403A0431C68E0601868C06888
:10453000202420431C68E06000BF00243C20C454B9
:1045400000BF0020C2E7704770B50446A56A01218C
:104550003D2041552846FFF7F6FF70BD704770B506
:104560000446A56A01213D2041552846FFF7F6FF84
:1045700070BD10B5034600BF3C20C05C012801D1CE
:10458000022010BD01243C20C45400BF002905D0E6
:10459000102903D0202901D030290AD11868806859
:1045A000CA4C20401C68A0601868806808431C68DA
:1045B000A06018684068012420431C686060186887
:1045C00040680424A0431C68606018684068104379
:1045D0001C686060BE4C586BC462BE4C586B046370
:1045E000BD4C586B44631868C0682024A0431C6805
:1045F000E0601868C0680124640320431C68E06020
:1046000000BF00243C20C45400BF0020B9E730B5EF
:1046100002460B4600BF3C20805C012801D10220ED
:1046200030BD01253C20855400BF02253D20855426
:104630001068416810688468A84D1068A84206D1C7
:104640000F252D050846A8430146586801437025EB
:104650000846A84301461868014380252046A84320
:10466000044698680443106841601068846001251E
:104670003D20855400BF00253C20855400BF00200C
:10468000CEE710B50346002200BF3C20C05C0128E5
:1046900001D1022010BD01243C20C45400BF100AE7
:1046A0000002CC6820430246104603242402A043A3
:1046B0008C682043024610460124A402A0434C68A3
:1046C0002043024610460124E402A0430C68204324
:1046D0000246104601242403A0430C6920430246ED
:1046E000104601246403A0434C692043024610464F
:1046F0000124A403A0430C6B2043024610460F2460
:104700002404A0430C8B240420430246734C1868F5
:10471000A04206D1104601242407A043CC692043BF
:1047200002466E4C1868A04220D110460F24240582
:10473000A0430C8D24052043024610460124240684
:10474000A0430C6A20430246104601246406A0439D
:104750004C6A20430246614C1868A04206D11046BC
:1047600001246407A043CC6A2043024618684264CF
:1047700000BF00243C20C45400BF00208AE7F7B5E6
:1047800081B0034600BF3C20C05C012802D102205A
:1047900004B0F0BD01203C27F85400BF1068012888
:1047A00005D10124002645020920009005E00024DF
:1047B000002500260020009000BF00BF02980128BD
:1047C00002D0022828D113E01868016E0846A043E1
:1047D00001465068B040204001430846A8430146C6
:1047E0009068009FB840284001431868016614E0B3
:1047F0001868416E0846A04301465068B04020400A
:1048000001430846A84301469068009FB8402840ED
:1048100001431868416600E000BF00BF00BF0020F0
:104820003C27F85400BF00BFB2E7024600BF3C205F
:10483000805C012801D10220704701233C20835471
:1048400000BF1068006E0F239B0398430843136852
:10485000186600BF00233C20835400BF0020EBE714
:1048600030B50346002400BF3C20C05C012801D1C4
:10487000022030BD01253C20C55400BF002A02D0D3
:10488000042A11D107E01868806E0009000108436E
:104890001D68A8660AE01868806E0F252D02A843DF
:1048A00008431D68A86601E0012400BF00BF00BFE7
:1048B00000253C20C55400BF2046DAE7024600BF71
:1048C0003C20805C01280BD1022070478FFFCFFF76
:1048D0005F45000849450008F3070008002C014027
:1048E00001233C20835400BF02233D2083541068E1
:1048F000806DC000C008136898651068806D08431B
:104900001368986501233D20835400BF00233C2099
:10491000835400BF0020D8E710B502460B46012B98
:1049200002D0022B28D113E01068416C012000074F
:10493000084001242407A04209D140130840002860
:1049400005D11068406CA41020431468606414E022
:104950001068416C01204007084001246407A04210
:1049600009D180130840002805D11068406CA410BC
:1049700020431468606400E000BF00BF002010BD49
:1049800070B504460E46012E02D0022E38D11BE02F
:104990002068406C012109070840884213D102F0C9
:1049A00085F8054600BF2068406C01218906084053
:1049B000884201D0002070BD02F078F8401B052825
:1049C000F1D90320F7E71CE02068406C012149077A
:1049D0000840884213D102F069F8054600BF2068FC
:1049E000406C0121C9060840884201D00020E2E75E
:1049F00002F05CF8401B0528F1D90320DBE700E05A
:104A000000BF00BF0020D6E77047704701463D2039
:104A1000405C704710B502F049F80446FB48006856
:104A2000FF2101310843F949086006E002F03EF831
:104A3000001B022801D9032010BDF44800680121A1
:104A4000890208400028F1D00801F049486002F0CE
:104A50002DF804460020ED49886007E002F026F8B2
:104A6000001BEB49884201D90320E5E7E74880684D
:104A7000382108400028F1D1FF200130E3490860C7
:104A8000086002F013F8044606E002F00FF8001B7D
:104A9000022801D90320CFE7DC480068012149063C
:104AA00008400028F1D14813D849C8600020886127
:104AB000401E0862D748D8490860D848006801F00D
:104AC00098FF002801D00120B6E70020B4E7FEB52A
:104AD0000446002C01D10120FEBD2078C007C00F84
:104AE00000286FD0C948876838210F40C068860702
:104AF000B60F102F01D1032E01D0082F0BD1C348C0
:104B0000006801214904084000285BD06068002843
:104B100058D10120E0E700BF012109046068884204
:104B200005D1BA4800680843B849086021E005216A
:104B30000904606888420ED1B448006801218904E4
:104B40000843B24908600846006801210904084387
:104B5000AE4908600DE0AD480068012109048843B2
:104B6000AA49086008460068012189048843A749CA
:104B7000086000BF6068002812D001F097FF05466A
:104B800006E001F093FF401B642801D90320A3E74E
:104B90009E4800680121490408400028F1D011E036
:104BA00001F084FF054606E001F080FF401B642809
:104BB00001D9032090E79548006801214904084085
:104BC0000028F1D1022120680840022873D18F48C3
:104BD00080683821084007468C48C0688607B60FB1
:104BE000102F01D1022E01D0002F36D18748006846
:104BF000012189020840002804D0E068002801D182
:104C0000012069E7814840687F2109028843616982
:104C1000090208437D494860002F16D10846006804
:104C20000721C9028843216908437849086008467A
:104C300000680722D2021040C20A012090400146BB
:104C4000744806F045FC744908607448006801F037
:104C5000D0FE002849D001203EE7E06800282BD094
:104C60006A4800680721C9028843216908436749E7
:104C7000086008460068891508436449086001F027
:104C800015FF054606E001F011FF401B022801D97F
:104C9000032021E75D4800680121890208400028BF
:104CA000F1D05A4840687F210902884361690902AE
:104CB00008435649486018E054480068FF21013114
:104CC00088435249086001F0F1FE054606E001F014
:104CD000EDFE401B022801D90320FDE64B48006889
:104CE0000121890208400028F1D1082120680840EC
:104CF000082849D1454880683821084018280BD138
:104D000042484030006A0221084000283CD0A06997
:104D1000002839D10120DFE6A06900281AD03B48DD
:104D20004030006A0121084338494031086201F0EF
:104D3000BDFE054606E001F0B9FE401B022801D980
:104D40000320C9E631484030006A022108400028AB
:104D5000F1D019E02D484030006A400840002B494E
:104D60004031086201F0A2FE054606E001F09EFE19
:104D7000401B022801D90320AEE624484030006AD7
:104D8000022108400028F1D10421206808400428AD
:104D900071D1002001901D488068382108402028EA
:104DA0000BD11A484030C06902210840002876D053
:104DB000A068002873D101208EE61448C06B010F53
:104DC00001208843002810D000BF1048C06B01218B
:104DD000090708430D49C8630846C06B0904084029
:104DE000009000BF00BF012001900D480068FF2126
:104DF00001310840002823D10948006808430849C8
:104E0000086001F053FE054613E000000010024068
:104E1000881300000024F4000C000020040000208F
:104E20000070004001F042FE401B022801D903201F
:104E300052E6F8480068FF21013108400028F1D00F
:104E400000BFA068012806D1F348C06901210843CA
:104E5000F149C8611BE0A06805280DD1EE48C06982
:104E600004210843EC49C8610846C0690121084390
:104E7000E949C8610BE041E0E748C06941084900E1
:104E8000E548C161C06904218843E349C86100BFA6
:104E9000A068002813D001F009FE054608E02CE0C8
:104EA00001F004FE401BDD49884201D9032013E6CE
:104EB000D948C069022108400028F1D011E001F072
:104EC000F5FD054607E001F0F1FD401BD34988429E
:104ED00001D9032000E6D048C0690221084000281B
:104EE000F1D10198012808D1CB484038C06B01218D
:104EF00009078843C8494039C86300BFE0690028F2
:104F00005AD0C548403880683821084010287ED0E3
:104F1000E069022851D1C0484038006801210906E3
:104F20008843BD494039086001F0C0FD054606E0F0
:104F300001F0BCFD401B022801D90320CCE5B64896
:104F4000403800680121490608400028F0D1616A14
:104F5000206A0843A16A09020843E16A0843216BF9
:104F60000843AD494039C968AD4A11400843AA49D0
:104F70004039C86008460068012109060843A6496F
:104F8000403908600846C06809040843A24940390E
:104F9000C86001F08BFD054606E001F087FD401B6F
:104FA000022801D9032097E59B4840380068012179
:104FB000490608400028F0D04EE097484038006885
:104FC0000121090688439449403908600846C068B1
:104FD00080088000C8600846C068924908408E4931
:104FE0004039C86001F062FD054607E001F05EFD52
:104FF000401B022802D903206EE508E086484038AD
:1050000000680121490608400028EFD124E0E0694A
:10501000012800D160E580484038C668B107890F93
:10502000206A814216D170203040616A884211D1D5
:105030007F2000023040A16A090288420AD11F2065
:1050400040043040E16A884204D1710F4907206B67
:10505000814201D001203FE500203DE5FEB56E48CC
:10506000403880683821084000280ED16A4840380E
:10507000006809020840C10A0120884000906A487F
:10508000009906F025FA04465DE0634840388068E0
:1050900038210840082801D1644C54E05E4840386B
:1050A000806838210840102839D15B484038C068F2
:1050B0008607B60F58484038C0687021084000097C
:1050C000401C0190022E10D0032E0DD1574801999B
:1050D00006F0FEF950494039C9687F22120211409A
:1050E000090A484305460EE000BF4F48019906F003
:1050F000EFF949494039C9687F2212021140090A73
:105100004843054600BF00BF43484038C068400FD1
:10511000471C3946284606F0DBF9044613E03E48B2
:105120004038806838210840202801D184020AE0F4
:1051300039484038806838210840182802D17D2439
:10514000240200E000242046FEBD70B504460D4652
:10515000002C01D1012070BD354800684007400F88
:10516000A84218D232480068C008C000284330491D
:10517000086001F09BFC064607E001F097FC801BED
:105180002649884201D90320E5E7294800684007FD
:10519000400FA842F1D1022120680840022819D10D
:1051A000042120680840042809D11B484038806841
:1051B0000721090388434018174940398860164879
:1051C000403880680F2109028843A16808431249CA
:1051D000403988602078C007C00F002867D0606819
:1051E000012809D10C4840380068012149040840D1
:1051F000002840D10120AEE7606802281AD1064895
:1052000040380068012149060840002833D10120B8
:10521000A1E7000000700040401002408813000029
:105220008C80C11FFFFFFEEF0024F40000127A0003
:10523000002002406068002808D1C14800680121B0
:1052400089020840002816D1012084E760680328FD
:1052500008D1BB484030006A0221084000280AD12A
:10526000012078E7B6484030C06902210840002894
:1052700001D101206FE7B2488068C008C0006168B2
:105280000843AF49886001F011FC064607E001F0D1
:105290000DFC801BAB49884201D903205BE7A8487D
:1052A0008068382108406168C9008842EFD1A6486B
:1052B00000684007400FA84218D9A3480068C008FA
:1052C000C0002843A049086001F0F0FB064607E053
:1052D00001F0ECFB801B9B49884201D903203AE78F
:1052E000994800684007400FA842F1D10421206886
:1052F0000840042808D192488068072109038843A0
:10530000E16808438E498860FFF7A8FE8C498968E8
:105310000F2212021140090A89008C4A515CC90609
:10532000C90EC8408A4908608A48006801F061FBDC
:1053300011E770B586B006460C46154600BF80489A
:10534000406B012108437E4948630846406BC00713
:10535000C00F009000BF00BF88150190022002908E
:105360000320049000200390059001A90520000768
:10537000FAF798FF7248806877210906884321462A
:10538000294308436E49886006B070BD70480068C4
:10539000704700B5FFF7FAFF6949896807221203D1
:1053A0001140090B89006C4A515CC906C90EC840FE
:1053B00000BD0F2101606249096801229204114079
:1053C000914203D10521090441600AE05C49096862
:1053D000012212041140914201D1416001E00021FB
:1053E000416057490968FF2201321140914201D1C1
:1053F000C16001E00021C160514949687F22120269
:105400001140090A41614E4909680722D202114040
:10541000C90A01614A494031C9690422114004297D
:1054200002D1052181600BE045494031C969C907B6
:10543000C90F002902D00121816001E000218160B3
:105440003F494031096AC907C90F002902D001212B
:10545000816101E000218161394909680122120658
:105460001140914202D10221C16101E00121C161DB
:105470003349C9688A07920F02623149C9687022AC
:10548000114041622E49C9687F22120211400A0A66
:1054900082622B49C9681F2252041140C162284907
:1054A000C9684A0F52070263704707220260244A04
:1054B00092685207520F4260214A92680F231B02E2
:1054C0001A4082601E4A926807231B031A40C2607A
:1054D0001D4A12685207520F0A6070471848006848
:1054E0000121C90408431649086070471448403038
:1054F000C0692021084312494031C86170471048F3
:105500004030C069202188430D494031C86170474F
:105510007047704710B50A48C46903200002204054
:105520000749086288152040002801D0FFF7F1FFE5
:10553000012040022040002801D0FFF7E9FF10BD04
:10554000001002408813000000200240A8B50008A7
:105550000C00002004000020E8B50008F8B506465D
:1055600001F0A4FA871905E001F0A0FAB84201D3CE
:105570000320F8BDE4480069012109040840000C3B
:105580000028F1D1E0480469E0490C40481CDE499C
:1055900008610846856941040D40002D06D08069E8
:1055A0002843D9498861204628430446002C03D06B
:1055B000D74844600120DCE701F078FA871905E05C
:1055C00001F074FAB84201D30320D2E7CE48006953
:1055D000012189040840800C0028F1D100BFC8E7F0
:1055E000F0B50246002314460D46C74E76690127E2
:1055F000BF043E43C44F7E6100BFEFF310863046C8
:1056000072B605E02E6826602D1D241D5E1CF3B2C7
:10561000402BF7D300BFBC4E366901273F043E4004
:10562000002EF8D100BF80F3108800BFF0BD10B588
:10563000B549496901242143B34C6161026000BF4F
:1056400000BF00BFBFF36F8F00BF00BF00BF43604C
:1056500010BDF0B51FB4064614461D4600BFAC4849
:105660000078012802D1022005B0F0BD0120A84930
:10567000087000BF002048607D20C000FFF76EFF6B
:105680000746002F15D1012E05D122462B46019841
:10569000FFF7CDFF03E021460198FFF7A1FF7D2032
:1056A000C000FFF75BFF074697484069B043964943
:1056B000486100BF00209649087000BF3846D3E714
:1056C000F0B51FB4064614461D4600BF904800784A
:1056D000012802D1022005B0F0BD01208C490870DC
:1056E00000BF002048607D20C000FFF737FF07465D
:1056F000002F04D000BF00208549087020E08448B6
:10570000866083490198C86000BF7F488069012195
:10571000090608437C498861084640690321090657
:1057200008437949486100BF012E05D122462B4626
:105730000198FFF77CFF03E021460198FFF750FF37
:105740003846C8E77047704770B50025ED436E488E
:1057500000696E49084004466B4880694907084063
:105760000443694840696A498968884366494861D1
:105770006748806867490840002802D06448C568C7
:1057800007E06348806806210840002801D060488F
:105790000569002C1FD05E48406820435C49486082
:1057A00000BFA00F8007002806D057488069A10FCE
:1057B0008907084354498861A0008008002803D065
:1057C000A00080085049086100BF0020504988604F
:1057D0002846FFF7B8FF4C480069C007C00F0121F9
:1057E00048404840002823D000BF012046490861B6
:1057F00000BF47488068022814D145484069401ED0
:105800004349486108464069002807D008460069B6
:10581000401C0861086900F087F806E000203C4958
:10582000886002E000203A4988602846FFF78AFF36
:1058300037488068002814D100BF334880690121AF
:1058400009068843304988610846406903210906F2
:1058500088432D49486100BF00BF00202C490870D3
:1058600000BF70BD002028494969C90FC907002938
:105870000BD02949244A9160284991601146496911
:10588000C90FC907002900D00120704701201E4917
:105890004969C20711431C4A516111464969C90F40
:1058A000C907002900D00020704701201649496926
:1058B0008207114000290BD01949134AD1601949B8
:1058C000D1601146496982071140002900D10020AA
:1058D000704701200C494969820711430A4A516106
:1058E0001146496982071140002900D00020704705
:1058F000054840690121C906084303494861012060
:10590000704703484068704700200240FA83000057
:10591000240100200100040023016745AB89EFCD7D
:105920003B2A19087F6E5D4CC24A5269FF23F93346
:105930009A431146C20001231B041A43921C0A43D6
:10594000BC4B5A617047BB484069BB490843B949E1
:1059500048617047F8B504460F4600BFB748007865
:10596000012801D10220F8BD0120B449087000BF10
:10597000002048607D20C000FFF7F0FD0646002EA5
:1059800028D12068042807D1FFF7DDFF7D20C00063
:10599000FFF7E4FD06461DE00020C043386065685F
:1059A0000CE02846FFF7C0FF7D20C000FFF7D6FDC2
:1059B0000646002E01D03D6005E06D1CA1686068C0
:1059C0004018A842EDD800BF9A4840690221884398
:1059D0009849486100BF00209849087000BF3046D0
:1059E000C1E770B5044600BF94480078012801D192
:1059F000022070BD01209149087000BF002048605E
:105A0000206888607D20C000FFF7A8FD0546002DB6
:105A100004D000BF00208949087019E000BF854804
:105A200040690321090608438249486100BF206894
:105A3000042805D1002081490861FFF784FF07E0B1
:105A40007E49A0684861606808616068FFF76CFF84
:105A50002846CEE730B5774C236AFF2404431D4621
:105A6000A5432B461C460C431443724D2C6230BD9B
:105A70007048006AC1B2AA2903D0CC2901D0BB204A
:105A800070470846FCE76B49096A090A09026C4A33
:105A900011400846704710B5012804D013040B4389
:105AA000644C236303E013040B43624CE36210BDB8
:105AB00070B5044600BF61480078012801D102207A
:105AC00070BD01205D49087000BF0020486020784B
:105AD000C007C00F002803D0201D07C8FFF7DBFF59
